{
  "contractName": "ERC1155",
  "abi": [
    {
      "anonymous": false,
      "inputs": [
        {
          "indexed": true,
          "internalType": "address",
          "name": "owner",
          "type": "address"
        },
        {
          "indexed": true,
          "internalType": "address",
          "name": "operator",
          "type": "address"
        },
        {
          "indexed": false,
          "internalType": "bool",
          "name": "approved",
          "type": "bool"
        }
      ],
      "name": "ApprovalForAll",
      "type": "event"
    },
    {
      "anonymous": false,
      "inputs": [
        {
          "indexed": true,
          "internalType": "address",
          "name": "operator",
          "type": "address"
        },
        {
          "indexed": true,
          "internalType": "address",
          "name": "from",
          "type": "address"
        },
        {
          "indexed": true,
          "internalType": "address",
          "name": "to",
          "type": "address"
        },
        {
          "indexed": false,
          "internalType": "uint256[]",
          "name": "ids",
          "type": "uint256[]"
        },
        {
          "indexed": false,
          "internalType": "uint256[]",
          "name": "values",
          "type": "uint256[]"
        }
      ],
      "name": "TransferBatch",
      "type": "event"
    },
    {
      "anonymous": false,
      "inputs": [
        {
          "indexed": true,
          "internalType": "address",
          "name": "operator",
          "type": "address"
        },
        {
          "indexed": true,
          "internalType": "address",
          "name": "from",
          "type": "address"
        },
        {
          "indexed": true,
          "internalType": "address",
          "name": "to",
          "type": "address"
        },
        {
          "indexed": false,
          "internalType": "uint256",
          "name": "id",
          "type": "uint256"
        },
        {
          "indexed": false,
          "internalType": "uint256",
          "name": "value",
          "type": "uint256"
        }
      ],
      "name": "TransferSingle",
      "type": "event"
    },
    {
      "anonymous": false,
      "inputs": [
        {
          "indexed": false,
          "internalType": "string",
          "name": "value",
          "type": "string"
        },
        {
          "indexed": true,
          "internalType": "uint256",
          "name": "id",
          "type": "uint256"
        }
      ],
      "name": "URI",
      "type": "event"
    },
    {
      "inputs": [
        {
          "internalType": "address",
          "name": "",
          "type": "address"
        },
        {
          "internalType": "uint256",
          "name": "",
          "type": "uint256"
        }
      ],
      "name": "balanceOf",
      "outputs": [
        {
          "internalType": "uint256",
          "name": "",
          "type": "uint256"
        }
      ],
      "stateMutability": "view",
      "type": "function"
    },
    {
      "inputs": [
        {
          "internalType": "address",
          "name": "",
          "type": "address"
        },
        {
          "internalType": "address",
          "name": "",
          "type": "address"
        }
      ],
      "name": "isApprovedForAll",
      "outputs": [
        {
          "internalType": "bool",
          "name": "",
          "type": "bool"
        }
      ],
      "stateMutability": "view",
      "type": "function"
    },
    {
      "inputs": [
        {
          "internalType": "address[]",
          "name": "owners",
          "type": "address[]"
        },
        {
          "internalType": "uint256[]",
          "name": "ids",
          "type": "uint256[]"
        }
      ],
      "name": "balanceOfBatch",
      "outputs": [
        {
          "internalType": "uint256[]",
          "name": "balances",
          "type": "uint256[]"
        }
      ],
      "stateMutability": "view",
      "type": "function"
    },
    {
      "inputs": [
        {
          "internalType": "address",
          "name": "operator",
          "type": "address"
        },
        {
          "internalType": "bool",
          "name": "approved",
          "type": "bool"
        }
      ],
      "name": "setApprovalForAll",
      "outputs": [],
      "stateMutability": "nonpayable",
      "type": "function"
    },
    {
      "inputs": [
        {
          "internalType": "address",
          "name": "from",
          "type": "address"
        },
        {
          "internalType": "address",
          "name": "to",
          "type": "address"
        },
        {
          "internalType": "uint256",
          "name": "id",
          "type": "uint256"
        },
        {
          "internalType": "uint256",
          "name": "value",
          "type": "uint256"
        },
        {
          "internalType": "bytes",
          "name": "data",
          "type": "bytes"
        }
      ],
      "name": "safeTransferFrom",
      "outputs": [],
      "stateMutability": "nonpayable",
      "type": "function"
    },
    {
      "inputs": [
        {
          "internalType": "address",
          "name": "from",
          "type": "address"
        },
        {
          "internalType": "address",
          "name": "to",
          "type": "address"
        },
        {
          "internalType": "uint256[]",
          "name": "ids",
          "type": "uint256[]"
        },
        {
          "internalType": "uint256[]",
          "name": "values",
          "type": "uint256[]"
        },
        {
          "internalType": "bytes",
          "name": "data",
          "type": "bytes"
        }
      ],
      "name": "safeBatchTransferFrom",
      "outputs": [],
      "stateMutability": "nonpayable",
      "type": "function"
    },
    {
      "inputs": [
        {
          "internalType": "uint256",
          "name": "id",
          "type": "uint256"
        }
      ],
      "name": "uri",
      "outputs": [
        {
          "internalType": "string",
          "name": "",
          "type": "string"
        }
      ],
      "stateMutability": "view",
      "type": "function"
    }
  ],
  "bytecode": "0x608060405234801561000f575f80fd5b506119438061001d5f395ff3fe608060405234801561000f575f80fd5b506004361061007a575f3560e01c80634e1273f4116100595780634e1273f4146100fa578063a22cb4651461012a578063e985e9c514610146578063f242432a146101765761007a565b8062fdd58e1461007e5780630e89341c146100ae5780632eb2c2d6146100de575b5f80fd5b61009860048036038101906100939190610d5e565b610192565b6040516100a59190610dab565b60405180910390f35b6100c860048036038101906100c39190610dc4565b6101b1565b6040516100d59190610e79565b60405180910390f35b6100f860048036038101906100f39190610f4f565b6101b8565b005b610114600480360381019061010f919061107b565b610668565b60405161012191906111b0565b60405180910390f35b610144600480360381019061013f9190611205565b6107ce565b005b610160600480360381019061015b9190611243565b6108c6565b60405161016d9190611290565b60405180910390f35b610190600480360381019061018b91906112a9565b6108f0565b005b5f602052815f5260405f20602052805f5260405f205f91509150505481565b6060919050565b8773ffffffffffffffffffffffffffffffffffffffff163373ffffffffffffffffffffffffffffffffffffffff161480610273575060015f8973ffffffffffffffffffffffffffffffffffffffff1673ffffffffffffffffffffffffffffffffffffffff1681526020019081526020015f205f3373ffffffffffffffffffffffffffffffffffffffff1673ffffffffffffffffffffffffffffffffffffffff1681526020019081526020015f205f9054906101000a900460ff165b6102b2576040517f08c379a00000000000000000000000000000000000000000000000000000000081526004016102a990611389565b60405180910390fd5b5f73ffffffffffffffffffffffffffffffffffffffff168773ffffffffffffffffffffffffffffffffffffffff1603610320576040517f08c379a0000000000000000000000000000000000000000000000000000000008152600401610317906113f1565b60405180910390fd5b838390508686905014610368576040517f08c379a000000000000000000000000000000000000000000000000000000000815260040161035f90611459565b60405180910390fd5b5f5b868690508110156104ae5784848281811061038857610387611477565b5b905060200201355f808b73ffffffffffffffffffffffffffffffffffffffff1673ffffffffffffffffffffffffffffffffffffffff1681526020019081526020015f205f8989858181106103df576103de611477565b5b9050602002013581526020019081526020015f205f82825461040191906114d1565b9250508190555084848281811061041b5761041a611477565b5b905060200201355f808a73ffffffffffffffffffffffffffffffffffffffff1673ffffffffffffffffffffffffffffffffffffffff1681526020019081526020015f205f89898581811061047257610471611477565b5b9050602002013581526020019081526020015f205f8282546104949190611504565b9250508190555080806104a690611537565b91505061036a565b508673ffffffffffffffffffffffffffffffffffffffff168873ffffffffffffffffffffffffffffffffffffffff163373ffffffffffffffffffffffffffffffffffffffff167f4a39dc06d4c0dbc64b70af90fd698a233a518aa5d07e595d983b8c0526c8f7fb8989898960405161052994939291906115e6565b60405180910390a45f8773ffffffffffffffffffffffffffffffffffffffff163b111561065e5763bc197c8160e01b7bffffffffffffffffffffffffffffffffffffffffffffffffffffffff19168773ffffffffffffffffffffffffffffffffffffffff1663bc197c81338b8a8a8a8a8a8a6040518963ffffffff1660e01b81526004016105be989796959493929190611678565b6020604051808303815f875af11580156105da573d5f803e3d5ffd5b505050506040513d601f19601f820116820180604052508101906105fe9190611739565b7bffffffffffffffffffffffffffffffffffffffffffffffffffffffff19161461065d576040517f08c379a0000000000000000000000000000000000000000000000000000000008152600401610654906117ae565b60405180910390fd5b5b5050505050505050565b60608282905085859050146106b2576040517f08c379a00000000000000000000000000000000000000000000000000000000081526004016106a990611816565b60405180910390fd5b8484905067ffffffffffffffff8111156106cf576106ce611834565b5b6040519080825280602002602001820160405280156106fd5781602001602082028036833780820191505090505b5090505f5b858590508110156107c5575f8087878481811061072257610721611477565b5b90506020020160208101906107379190611861565b73ffffffffffffffffffffffffffffffffffffffff1673ffffffffffffffffffffffffffffffffffffffff1681526020019081526020015f205f85858481811061078457610783611477565b5b9050602002013581526020019081526020015f20548282815181106107ac576107ab611477565b5b6020026020010181815250508080600101915050610702565b50949350505050565b8060015f3373ffffffffffffffffffffffffffffffffffffffff1673ffffffffffffffffffffffffffffffffffffffff1681526020019081526020015f205f8473ffffffffffffffffffffffffffffffffffffffff1673ffffffffffffffffffffffffffffffffffffffff1681526020019081526020015f205f6101000a81548160ff0219169083151502179055508173ffffffffffffffffffffffffffffffffffffffff163373ffffffffffffffffffffffffffffffffffffffff167f17307eab39ab6107e8899845ad3d59bd9653f200f220920489ca2b5937696c31836040516108ba9190611290565b60405180910390a35050565b6001602052815f5260405f20602052805f5260405f205f915091509054906101000a900460ff1681565b8573ffffffffffffffffffffffffffffffffffffffff163373ffffffffffffffffffffffffffffffffffffffff1614806109ab575060015f8773ffffffffffffffffffffffffffffffffffffffff1673ffffffffffffffffffffffffffffffffffffffff1681526020019081526020015f205f3373ffffffffffffffffffffffffffffffffffffffff1673ffffffffffffffffffffffffffffffffffffffff1681526020019081526020015f205f9054906101000a900460ff165b6109ea576040517f08c379a00000000000000000000000000000000000000000000000000000000081526004016109e190611389565b60405180910390fd5b5f73ffffffffffffffffffffffffffffffffffffffff168573ffffffffffffffffffffffffffffffffffffffff1603610a58576040517f08c379a0000000000000000000000000000000000000000000000000000000008152600401610a4f906113f1565b60405180910390fd5b825f808873ffffffffffffffffffffffffffffffffffffffff1673ffffffffffffffffffffffffffffffffffffffff1681526020019081526020015f205f8681526020019081526020015f205f828254610ab291906114d1565b92505081905550825f808773ffffffffffffffffffffffffffffffffffffffff1673ffffffffffffffffffffffffffffffffffffffff1681526020019081526020015f205f8681526020019081526020015f205f828254610b139190611504565b925050819055508473ffffffffffffffffffffffffffffffffffffffff168673ffffffffffffffffffffffffffffffffffffffff163373ffffffffffffffffffffffffffffffffffffffff167fc3d58168c5ae7397731d063d5bbf3d657854427343f4c083240f7aacaa2d0f628787604051610b9092919061188c565b60405180910390a45f8573ffffffffffffffffffffffffffffffffffffffff163b1115610cc15763f23a6e6160e01b7bffffffffffffffffffffffffffffffffffffffffffffffffffffffff19168573ffffffffffffffffffffffffffffffffffffffff1663f23a6e613389888888886040518763ffffffff1660e01b8152600401610c21969594939291906118b3565b6020604051808303815f875af1158015610c3d573d5f803e3d5ffd5b505050506040513d601f19601f82011682018060405250810190610c619190611739565b7bffffffffffffffffffffffffffffffffffffffffffffffffffffffff191614610cc0576040517f08c379a0000000000000000000000000000000000000000000000000000000008152600401610cb7906117ae565b60405180910390fd5b5b505050505050565b5f80fd5b5f80fd5b5f73ffffffffffffffffffffffffffffffffffffffff82169050919050565b5f610cfa82610cd1565b9050919050565b610d0a81610cf0565b8114610d14575f80fd5b50565b5f81359050610d2581610d01565b92915050565b5f819050919050565b610d3d81610d2b565b8114610d47575f80fd5b50565b5f81359050610d5881610d34565b92915050565b5f8060408385031215610d7457610d73610cc9565b5b5f610d8185828601610d17565b9250506020610d9285828601610d4a565b9150509250929050565b610da581610d2b565b82525050565b5f602082019050610dbe5f830184610d9c565b92915050565b5f60208284031215610dd957610dd8610cc9565b5b5f610de684828501610d4a565b91505092915050565b5f81519050919050565b5f82825260208201905092915050565b5f5b83811015610e26578082015181840152602081019050610e0b565b5f8484015250505050565b5f601f19601f8301169050919050565b5f610e4b82610def565b610e558185610df9565b9350610e65818560208601610e09565b610e6e81610e31565b840191505092915050565b5f6020820190508181035f830152610e918184610e41565b905092915050565b5f80fd5b5f80fd5b5f80fd5b5f8083601f840112610eba57610eb9610e99565b5b8235905067ffffffffffffffff811115610ed757610ed6610e9d565b5b602083019150836020820283011115610ef357610ef2610ea1565b5b9250929050565b5f8083601f840112610f0f57610f0e610e99565b5b8235905067ffffffffffffffff811115610f2c57610f2b610e9d565b5b602083019150836001820283011115610f4857610f47610ea1565b5b9250929050565b5f805f805f805f8060a0898b031215610f6b57610f6a610cc9565b5b5f610f788b828c01610d17565b9850506020610f898b828c01610d17565b975050604089013567ffffffffffffffff811115610faa57610fa9610ccd565b5b610fb68b828c01610ea5565b9650965050606089013567ffffffffffffffff811115610fd957610fd8610ccd565b5b610fe58b828c01610ea5565b9450945050608089013567ffffffffffffffff81111561100857611007610ccd565b5b6110148b828c01610efa565b92509250509295985092959890939650565b5f8083601f84011261103b5761103a610e99565b5b8235905067ffffffffffffffff81111561105857611057610e9d565b5b60208301915083602082028301111561107457611073610ea1565b5b9250929050565b5f805f806040858703121561109357611092610cc9565b5b5f85013567ffffffffffffffff8111156110b0576110af610ccd565b5b6110bc87828801611026565b9450945050602085013567ffffffffffffffff8111156110df576110de610ccd565b5b6110eb87828801610ea5565b925092505092959194509250565b5f81519050919050565b5f82825260208201905092915050565b5f819050602082019050919050565b61112b81610d2b565b82525050565b5f61113c8383611122565b60208301905092915050565b5f602082019050919050565b5f61115e826110f9565b6111688185611103565b935061117383611113565b805f5b838110156111a357815161118a8882611131565b975061119583611148565b925050600181019050611176565b5085935050505092915050565b5f6020820190508181035f8301526111c88184611154565b905092915050565b5f8115159050919050565b6111e4816111d0565b81146111ee575f80fd5b50565b5f813590506111ff816111db565b92915050565b5f806040838503121561121b5761121a610cc9565b5b5f61122885828601610d17565b9250506020611239858286016111f1565b9150509250929050565b5f806040838503121561125957611258610cc9565b5b5f61126685828601610d17565b925050602061127785828601610d17565b9150509250929050565b61128a816111d0565b82525050565b5f6020820190506112a35f830184611281565b92915050565b5f805f805f8060a087890312156112c3576112c2610cc9565b5b5f6112d089828a01610d17565b96505060206112e189828a01610d17565b95505060406112f289828a01610d4a565b945050606061130389828a01610d4a565b935050608087013567ffffffffffffffff81111561132457611323610ccd565b5b61133089828a01610efa565b92509250509295509295509295565b7f6e6f7420617070726f76656400000000000000000000000000000000000000005f82015250565b5f611373600c83610df9565b915061137e8261133f565b602082019050919050565b5f6020820190508181035f8301526113a081611367565b9050919050565b7f746f203d203020616464726573730000000000000000000000000000000000005f82015250565b5f6113db600e83610df9565b91506113e6826113a7565b602082019050919050565b5f6020820190508181035f830152611408816113cf565b9050919050565b7f696473206c656e67746820213d2076616c756573206c656e67746800000000005f82015250565b5f611443601b83610df9565b915061144e8261140f565b602082019050919050565b5f6020820190508181035f83015261147081611437565b9050919050565b7f4e487b71000000000000000000000000000000000000000000000000000000005f52603260045260245ffd5b7f4e487b71000000000000000000000000000000000000000000000000000000005f52601160045260245ffd5b5f6114db82610d2b565b91506114e683610d2b565b92508282039050818111156114fe576114fd6114a4565b5b92915050565b5f61150e82610d2b565b915061151983610d2b565b9250828201905080821115611531576115306114a4565b5b92915050565b5f61154182610d2b565b91507fffffffffffffffffffffffffffffffffffffffffffffffffffffffffffffffff8203611573576115726114a4565b5b600182019050919050565b5f80fd5b82818337505050565b5f6115968385611103565b93507f07ffffffffffffffffffffffffffffffffffffffffffffffffffffffffffffff8311156115c9576115c861157e565b5b6020830292506115da838584611582565b82840190509392505050565b5f6040820190508181035f8301526115ff81868861158b565b9050818103602083015261161481848661158b565b905095945050505050565b61162881610cf0565b82525050565b5f82825260208201905092915050565b828183375f83830152505050565b5f611657838561162e565b935061166483858461163e565b61166d83610e31565b840190509392505050565b5f60a08201905061168b5f83018b61161f565b611698602083018a61161f565b81810360408301526116ab81888a61158b565b905081810360608301526116c081868861158b565b905081810360808301526116d581848661164c565b90509998505050505050505050565b5f7fffffffff0000000000000000000000000000000000000000000000000000000082169050919050565b611718816116e4565b8114611722575f80fd5b50565b5f815190506117338161170f565b92915050565b5f6020828403121561174e5761174d610cc9565b5b5f61175b84828501611725565b91505092915050565b7f756e73616665207472616e7366657200000000000000000000000000000000005f82015250565b5f611798600f83610df9565b91506117a382611764565b602082019050919050565b5f6020820190508181035f8301526117c58161178c565b9050919050565b7f6f776e657273206c656e67746820213d20696473206c656e67746800000000005f82015250565b5f611800601b83610df9565b915061180b826117cc565b602082019050919050565b5f6020820190508181035f83015261182d816117f4565b9050919050565b7f4e487b71000000000000000000000000000000000000000000000000000000005f52604160045260245ffd5b5f6020828403121561187657611875610cc9565b5b5f61188384828501610d17565b91505092915050565b5f60408201905061189f5f830185610d9c565b6118ac6020830184610d9c565b9392505050565b5f60a0820190506118c65f83018961161f565b6118d3602083018861161f565b6118e06040830187610d9c565b6118ed6060830186610d9c565b818103608083015261190081848661164c565b905097965050505050505056fea2646970667358221220650624c69ce81294abb79d1f0e00723943053a3ca59d04f977d5b8ca31f8e67164736f6c63430008150033",
  "immutableReferences": {},
  "source": "// SPDX-License-Identifier: MIT\r\npragma solidity ^0.8.19;\r\n\r\ninterface IERC1155 {\r\n    function safeTransferFrom(\r\n        address from,\r\n        address to,\r\n        uint256 id,\r\n        uint256 value,\r\n        bytes calldata data\r\n    ) external;\r\n\r\n    function safeBatchTransferFrom(\r\n        address from,\r\n        address to,\r\n        uint256[] calldata ids,\r\n        uint256[] calldata values,\r\n        bytes calldata data\r\n    ) external;\r\n\r\n    function balanceOf(address owner, uint256 id) external view returns (uint256);\r\n\r\n    function balanceOfBatch(\r\n        address[] calldata owners,\r\n        uint256[] calldata ids\r\n    ) external view returns (uint256[] memory);\r\n\r\n    function setApprovalForAll(address operator, bool approved) external;\r\n\r\n    function isApprovedForAll(\r\n        address owner,\r\n        address operator\r\n    ) external view returns (bool);\r\n}\r\n\r\ninterface IERC1155TokenReceiver {\r\n    function onERC1155Received(\r\n        address operator,\r\n        address from,\r\n        uint256 id,\r\n        uint256 value,\r\n        bytes calldata data\r\n    ) external returns (bytes4);\r\n\r\n    function onERC1155BatchReceived(\r\n        address operator,\r\n        address from,\r\n        uint256[] calldata ids,\r\n        uint256[] calldata values,\r\n        bytes calldata data\r\n    ) external returns (bytes4);\r\n}\r\n\r\ncontract ERC1155 is IERC1155 {\r\n    event TransferSingle(\r\n        address indexed operator,\r\n        address indexed from,\r\n        address indexed to,\r\n        uint256 id,\r\n        uint256 value\r\n    );\r\n    event TransferBatch(\r\n        address indexed operator,\r\n        address indexed from,\r\n        address indexed to,\r\n        uint256[] ids,\r\n        uint256[] values\r\n    );\r\n    event ApprovalForAll(\r\n        address indexed owner,\r\n        address indexed operator,\r\n        bool approved\r\n    );\r\n    event URI(string value, uint256 indexed id);\r\n\r\n    // owner => id => balance\r\n    mapping(address => mapping(uint256 => uint256)) public balanceOf;\r\n    // owner => operator => approved\r\n    mapping(address => mapping(address => bool)) public isApprovedForAll;\r\n\r\n    function balanceOfBatch(\r\n        address[] calldata owners,\r\n        uint256[] calldata ids\r\n    ) external view returns (uint256[] memory balances) {\r\n        require(owners.length == ids.length, \"owners length != ids length\");\r\n\r\n        balances = new uint[](owners.length);\r\n\r\n        unchecked {\r\n            for (uint256 i = 0; i < owners.length; i++) {\r\n                balances[i] = balanceOf[owners[i]][ids[i]];\r\n            }\r\n        }\r\n    }\r\n\r\n    function setApprovalForAll(address operator, bool approved) external {\r\n        isApprovedForAll[msg.sender][operator] = approved;\r\n        emit ApprovalForAll(msg.sender, operator, approved);\r\n    }\r\n\r\n    function safeTransferFrom(\r\n        address from,\r\n        address to,\r\n        uint256 id,\r\n        uint256 value,\r\n        bytes calldata data\r\n    ) external {\r\n        require(\r\n            msg.sender == from || isApprovedForAll[from][msg.sender],\r\n            \"not approved\"\r\n        );\r\n        require(to != address(0), \"to = 0 address\");\r\n\r\n        balanceOf[from][id] -= value;\r\n        balanceOf[to][id] += value;\r\n\r\n        emit TransferSingle(msg.sender, from, to, id, value);\r\n\r\n        if (to.code.length > 0) {\r\n            require(\r\n                IERC1155TokenReceiver(to).onERC1155Received(\r\n                    msg.sender,\r\n                    from,\r\n                    id,\r\n                    value,\r\n                    data\r\n                ) == IERC1155TokenReceiver.onERC1155Received.selector,\r\n                \"unsafe transfer\"\r\n            );\r\n        }\r\n    }\r\n\r\n    function safeBatchTransferFrom(\r\n        address from,\r\n        address to,\r\n        uint256[] calldata ids,\r\n        uint256[] calldata values,\r\n        bytes calldata data\r\n    ) external {\r\n        require(\r\n            msg.sender == from || isApprovedForAll[from][msg.sender],\r\n            \"not approved\"\r\n        );\r\n        require(to != address(0), \"to = 0 address\");\r\n        require(ids.length == values.length, \"ids length != values length\");\r\n\r\n        for (uint256 i = 0; i < ids.length; i++) {\r\n            balanceOf[from][ids[i]] -= values[i];\r\n            balanceOf[to][ids[i]] += values[i];\r\n        }\r\n\r\n        emit TransferBatch(msg.sender, from, to, ids, values);\r\n\r\n        if (to.code.length > 0) {\r\n            require(\r\n                IERC1155TokenReceiver(to).onERC1155BatchReceived(\r\n                    msg.sender,\r\n                    from,\r\n                    ids,\r\n                    values,\r\n                    data\r\n                ) == IERC1155TokenReceiver.onERC1155BatchReceived.selector,\r\n                \"unsafe transfer\"\r\n            );\r\n        }\r\n    }\r\n\r\n\r\n    // ERC1155 Metadata URI\r\n    function uri(uint256 id) public view virtual returns (string memory) {}\r\n\r\n    // Internal functions\r\n    function _mint(address to, uint256 id, uint256 value, bytes memory data) internal {\r\n        require(to != address(0), \"to = 0 address\");\r\n\r\n        balanceOf[to][id] += value;\r\n\r\n        emit TransferSingle(msg.sender, address(0), to, id, value);\r\n\r\n        if (to.code.length > 0) {\r\n            require(\r\n                IERC1155TokenReceiver(to).onERC1155Received(\r\n                    msg.sender,\r\n                    address(0),\r\n                    id,\r\n                    value,\r\n                    data\r\n                ) == IERC1155TokenReceiver.onERC1155Received.selector,\r\n                \"unsafe transfer\"\r\n            );\r\n        }\r\n    }\r\n\r\n    function _batchMint(\r\n        address to,\r\n        uint256[] calldata ids,\r\n        uint256[] calldata values,\r\n        bytes calldata data\r\n    ) internal {\r\n        require(to != address(0), \"to = 0 address\");\r\n        require(ids.length == values.length, \"ids length != values length\");\r\n\r\n        for (uint256 i = 0; i < ids.length; i++) {\r\n            balanceOf[to][ids[i]] += values[i];\r\n        }\r\n\r\n        emit TransferBatch(msg.sender, address(0), to, ids, values);\r\n\r\n        if (to.code.length > 0) {\r\n            require(\r\n                IERC1155TokenReceiver(to).onERC1155BatchReceived(\r\n                    msg.sender,\r\n                    address(0),\r\n                    ids,\r\n                    values,\r\n                    data\r\n                ) == IERC1155TokenReceiver.onERC1155BatchReceived.selector,\r\n                \"unsafe transfer\"\r\n            );\r\n        }\r\n    }\r\n\r\n    function _burn(address from, uint256 id, uint256 value) internal {\r\n        require(from != address(0), \"from = 0 address\");\r\n        balanceOf[from][id] -= value;\r\n        emit TransferSingle(msg.sender, from, address(0), id, value);\r\n    }\r\n\r\n    function _batchBurn(\r\n        address from,\r\n        uint256[] calldata ids,\r\n        uint256[] calldata values\r\n    ) internal {\r\n        require(from != address(0), \"from = 0 address\");\r\n        require(ids.length == values.length, \"ids length != values length\");\r\n\r\n        for (uint256 i = 0; i < ids.length; i++) {\r\n            balanceOf[from][ids[i]] -= values[i];\r\n        }\r\n\r\n        emit TransferBatch(msg.sender, from, address(0), ids, values);\r\n    }\r\n}\r\n\r\ncontract MyMultiToken is ERC1155 {\r\n    function mint(uint256 id, uint256 value, bytes memory data) external {\r\n        _mint(msg.sender, id, value, data);\r\n    }\r\n\r\n    function batchMint(\r\n        uint256[] calldata ids,\r\n        uint256[] calldata values,\r\n        bytes calldata data\r\n    ) external {\r\n        _batchMint(msg.sender, ids, values, data);\r\n    }\r\n\r\n    function burn(uint256 id, uint256 value) external {\r\n        _burn(msg.sender, id, value);\r\n    }\r\n\r\n    function batchBurn(uint256[] calldata ids, uint256[] calldata values) external {\r\n        _batchBurn(msg.sender, ids, values);\r\n    }\r\n}\r\n",
  "sourcePath": "C:\\Users\\Hugo\\Desktop\\BC24\\contracts\\1155.sol",
  "compiler": {
    "name": "solc",
    "version": "0.8.21+commit.d9974bed.Emscripten.clang"
  },
  "schemaVersion": "3.4.16",
  "updatedAt": "2023-11-28T17:49:59.800Z",
  "devdoc": {
    "kind": "dev",
    "methods": {},
    "version": 1
  },
  "userdoc": {
    "kind": "user",
    "methods": {},
    "version": 1
  }
}