{
  "contractName": "MyMultiToken",
  "abi": [
    {
      "anonymous": false,
      "inputs": [
        {
          "indexed": true,
          "internalType": "address",
          "name": "owner",
          "type": "address"
        },
        {
          "indexed": true,
          "internalType": "address",
          "name": "operator",
          "type": "address"
        },
        {
          "indexed": false,
          "internalType": "bool",
          "name": "approved",
          "type": "bool"
        }
      ],
      "name": "ApprovalForAll",
      "type": "event"
    },
    {
      "anonymous": false,
      "inputs": [
        {
          "indexed": true,
          "internalType": "address",
          "name": "operator",
          "type": "address"
        },
        {
          "indexed": true,
          "internalType": "address",
          "name": "from",
          "type": "address"
        },
        {
          "indexed": true,
          "internalType": "address",
          "name": "to",
          "type": "address"
        },
        {
          "indexed": false,
          "internalType": "uint256[]",
          "name": "ids",
          "type": "uint256[]"
        },
        {
          "indexed": false,
          "internalType": "uint256[]",
          "name": "values",
          "type": "uint256[]"
        }
      ],
      "name": "TransferBatch",
      "type": "event"
    },
    {
      "anonymous": false,
      "inputs": [
        {
          "indexed": true,
          "internalType": "address",
          "name": "operator",
          "type": "address"
        },
        {
          "indexed": true,
          "internalType": "address",
          "name": "from",
          "type": "address"
        },
        {
          "indexed": true,
          "internalType": "address",
          "name": "to",
          "type": "address"
        },
        {
          "indexed": false,
          "internalType": "uint256",
          "name": "id",
          "type": "uint256"
        },
        {
          "indexed": false,
          "internalType": "uint256",
          "name": "value",
          "type": "uint256"
        }
      ],
      "name": "TransferSingle",
      "type": "event"
    },
    {
      "anonymous": false,
      "inputs": [
        {
          "indexed": false,
          "internalType": "string",
          "name": "value",
          "type": "string"
        },
        {
          "indexed": true,
          "internalType": "uint256",
          "name": "id",
          "type": "uint256"
        }
      ],
      "name": "URI",
      "type": "event"
    },
    {
      "inputs": [
        {
          "internalType": "address",
          "name": "",
          "type": "address"
        },
        {
          "internalType": "uint256",
          "name": "",
          "type": "uint256"
        }
      ],
      "name": "balanceOf",
      "outputs": [
        {
          "internalType": "uint256",
          "name": "",
          "type": "uint256"
        }
      ],
      "stateMutability": "view",
      "type": "function"
    },
    {
      "inputs": [
        {
          "internalType": "address[]",
          "name": "owners",
          "type": "address[]"
        },
        {
          "internalType": "uint256[]",
          "name": "ids",
          "type": "uint256[]"
        }
      ],
      "name": "balanceOfBatch",
      "outputs": [
        {
          "internalType": "uint256[]",
          "name": "balances",
          "type": "uint256[]"
        }
      ],
      "stateMutability": "view",
      "type": "function"
    },
    {
      "inputs": [
        {
          "internalType": "address",
          "name": "",
          "type": "address"
        },
        {
          "internalType": "address",
          "name": "",
          "type": "address"
        }
      ],
      "name": "isApprovedForAll",
      "outputs": [
        {
          "internalType": "bool",
          "name": "",
          "type": "bool"
        }
      ],
      "stateMutability": "view",
      "type": "function"
    },
    {
      "inputs": [
        {
          "internalType": "address",
          "name": "from",
          "type": "address"
        },
        {
          "internalType": "address",
          "name": "to",
          "type": "address"
        },
        {
          "internalType": "uint256[]",
          "name": "ids",
          "type": "uint256[]"
        },
        {
          "internalType": "uint256[]",
          "name": "values",
          "type": "uint256[]"
        },
        {
          "internalType": "bytes",
          "name": "data",
          "type": "bytes"
        }
      ],
      "name": "safeBatchTransferFrom",
      "outputs": [],
      "stateMutability": "nonpayable",
      "type": "function"
    },
    {
      "inputs": [
        {
          "internalType": "address",
          "name": "from",
          "type": "address"
        },
        {
          "internalType": "address",
          "name": "to",
          "type": "address"
        },
        {
          "internalType": "uint256",
          "name": "id",
          "type": "uint256"
        },
        {
          "internalType": "uint256",
          "name": "value",
          "type": "uint256"
        },
        {
          "internalType": "bytes",
          "name": "data",
          "type": "bytes"
        }
      ],
      "name": "safeTransferFrom",
      "outputs": [],
      "stateMutability": "nonpayable",
      "type": "function"
    },
    {
      "inputs": [
        {
          "internalType": "address",
          "name": "operator",
          "type": "address"
        },
        {
          "internalType": "bool",
          "name": "approved",
          "type": "bool"
        }
      ],
      "name": "setApprovalForAll",
      "outputs": [],
      "stateMutability": "nonpayable",
      "type": "function"
    },
    {
      "inputs": [
        {
          "internalType": "uint256",
          "name": "id",
          "type": "uint256"
        }
      ],
      "name": "uri",
      "outputs": [
        {
          "internalType": "string",
          "name": "",
          "type": "string"
        }
      ],
      "stateMutability": "view",
      "type": "function"
    },
    {
      "inputs": [
        {
          "internalType": "uint256",
          "name": "id",
          "type": "uint256"
        },
        {
          "internalType": "uint256",
          "name": "value",
          "type": "uint256"
        },
        {
          "internalType": "bytes",
          "name": "data",
          "type": "bytes"
        }
      ],
      "name": "mint",
      "outputs": [],
      "stateMutability": "nonpayable",
      "type": "function"
    },
    {
      "inputs": [
        {
          "internalType": "uint256[]",
          "name": "ids",
          "type": "uint256[]"
        },
        {
          "internalType": "uint256[]",
          "name": "values",
          "type": "uint256[]"
        },
        {
          "internalType": "bytes",
          "name": "data",
          "type": "bytes"
        }
      ],
      "name": "batchMint",
      "outputs": [],
      "stateMutability": "nonpayable",
      "type": "function"
    },
    {
      "inputs": [
        {
          "internalType": "uint256",
          "name": "id",
          "type": "uint256"
        },
        {
          "internalType": "uint256",
          "name": "value",
          "type": "uint256"
        }
      ],
      "name": "burn",
      "outputs": [],
      "stateMutability": "nonpayable",
      "type": "function"
    },
    {
      "inputs": [
        {
          "internalType": "uint256[]",
          "name": "ids",
          "type": "uint256[]"
        },
        {
          "internalType": "uint256[]",
          "name": "values",
          "type": "uint256[]"
        }
      ],
      "name": "batchBurn",
      "outputs": [],
      "stateMutability": "nonpayable",
      "type": "function"
    }
  ],
  "bytecode": "0x608060405234801561000f575f80fd5b506126da8061001d5f395ff3fe608060405234801561000f575f80fd5b50600436106100a6575f3560e01c80634e1273f41161006f5780634e1273f41461015e578063a22cb4651461018e578063b390c0ab146101aa578063cf04192e146101c6578063e985e9c5146101e2578063f242432a14610212576100a6565b8062fdd58e146100aa57806308dc9f42146100da5780630e89341c146100f657806320ec271b146101265780632eb2c2d614610142575b5f80fd5b6100c460048036038101906100bf919061172e565b61022e565b6040516100d1919061177b565b60405180910390f35b6100f460048036038101906100ef91906118d0565b61024d565b005b610110600480360381019061010b919061193c565b61025e565b60405161011d91906119e1565b60405180910390f35b610140600480360381019061013b9190611a5e565b610265565b005b61015c60048036038101906101579190611b31565b610278565b005b61017860048036038101906101739190611c5d565b610728565b6040516101859190611d92565b60405180910390f35b6101a860048036038101906101a39190611de7565b61088e565b005b6101c460048036038101906101bf9190611e25565b610986565b005b6101e060048036038101906101db9190611e63565b610995565b005b6101fc60048036038101906101f79190611f13565b6109ac565b6040516102099190611f60565b60405180910390f35b61022c60048036038101906102279190611f79565b6109d6565b005b5f602052815f5260405f20602052805f5260405f205f91509150505481565b61025933848484610daf565b505050565b6060919050565b6102723385858585611029565b50505050565b8773ffffffffffffffffffffffffffffffffffffffff163373ffffffffffffffffffffffffffffffffffffffff161480610333575060015f8973ffffffffffffffffffffffffffffffffffffffff1673ffffffffffffffffffffffffffffffffffffffff1681526020019081526020015f205f3373ffffffffffffffffffffffffffffffffffffffff1673ffffffffffffffffffffffffffffffffffffffff1681526020019081526020015f205f9054906101000a900460ff165b610372576040517f08c379a000000000000000000000000000000000000000000000000000000000815260040161036990612059565b60405180910390fd5b5f73ffffffffffffffffffffffffffffffffffffffff168773ffffffffffffffffffffffffffffffffffffffff16036103e0576040517f08c379a00000000000000000000000000000000000000000000000000000000081526004016103d7906120c1565b60405180910390fd5b838390508686905014610428576040517f08c379a000000000000000000000000000000000000000000000000000000000815260040161041f90612129565b60405180910390fd5b5f5b8686905081101561056e5784848281811061044857610447612147565b5b905060200201355f808b73ffffffffffffffffffffffffffffffffffffffff1673ffffffffffffffffffffffffffffffffffffffff1681526020019081526020015f205f89898581811061049f5761049e612147565b5b9050602002013581526020019081526020015f205f8282546104c191906121a1565b925050819055508484828181106104db576104da612147565b5b905060200201355f808a73ffffffffffffffffffffffffffffffffffffffff1673ffffffffffffffffffffffffffffffffffffffff1681526020019081526020015f205f89898581811061053257610531612147565b5b9050602002013581526020019081526020015f205f82825461055491906121d4565b92505081905550808061056690612207565b91505061042a565b508673ffffffffffffffffffffffffffffffffffffffff168873ffffffffffffffffffffffffffffffffffffffff163373ffffffffffffffffffffffffffffffffffffffff167f4a39dc06d4c0dbc64b70af90fd698a233a518aa5d07e595d983b8c0526c8f7fb898989896040516105e994939291906122b6565b60405180910390a45f8773ffffffffffffffffffffffffffffffffffffffff163b111561071e5763bc197c8160e01b7bffffffffffffffffffffffffffffffffffffffffffffffffffffffff19168773ffffffffffffffffffffffffffffffffffffffff1663bc197c81338b8a8a8a8a8a8a6040518963ffffffff1660e01b815260040161067e98979695949392919061233a565b6020604051808303815f875af115801561069a573d5f803e3d5ffd5b505050506040513d601f19601f820116820180604052508101906106be91906123fb565b7bffffffffffffffffffffffffffffffffffffffffffffffffffffffff19161461071d576040517f08c379a000000000000000000000000000000000000000000000000000000000815260040161071490612470565b60405180910390fd5b5b5050505050505050565b6060828290508585905014610772576040517f08c379a0000000000000000000000000000000000000000000000000000000008152600401610769906124d8565b60405180910390fd5b8484905067ffffffffffffffff81111561078f5761078e6117ac565b5b6040519080825280602002602001820160405280156107bd5781602001602082028036833780820191505090505b5090505f5b85859050811015610885575f808787848181106107e2576107e1612147565b5b90506020020160208101906107f791906124f6565b73ffffffffffffffffffffffffffffffffffffffff1673ffffffffffffffffffffffffffffffffffffffff1681526020019081526020015f205f85858481811061084457610843612147565b5b9050602002013581526020019081526020015f205482828151811061086c5761086b612147565b5b60200260200101818152505080806001019150506107c2565b50949350505050565b8060015f3373ffffffffffffffffffffffffffffffffffffffff1673ffffffffffffffffffffffffffffffffffffffff1681526020019081526020015f205f8473ffffffffffffffffffffffffffffffffffffffff1673ffffffffffffffffffffffffffffffffffffffff1681526020019081526020015f205f6101000a81548160ff0219169083151502179055508173ffffffffffffffffffffffffffffffffffffffff163373ffffffffffffffffffffffffffffffffffffffff167f17307eab39ab6107e8899845ad3d59bd9653f200f220920489ca2b5937696c318360405161097a9190611f60565b60405180910390a35050565b61099133838361121c565b5050565b6109a43387878787878761136e565b505050505050565b6001602052815f5260405f20602052805f5260405f205f915091509054906101000a900460ff1681565b8573ffffffffffffffffffffffffffffffffffffffff163373ffffffffffffffffffffffffffffffffffffffff161480610a91575060015f8773ffffffffffffffffffffffffffffffffffffffff1673ffffffffffffffffffffffffffffffffffffffff1681526020019081526020015f205f3373ffffffffffffffffffffffffffffffffffffffff1673ffffffffffffffffffffffffffffffffffffffff1681526020019081526020015f205f9054906101000a900460ff165b610ad0576040517f08c379a0000000000000000000000000000000000000000000000000000000008152600401610ac790612059565b60405180910390fd5b5f73ffffffffffffffffffffffffffffffffffffffff168573ffffffffffffffffffffffffffffffffffffffff1603610b3e576040517f08c379a0000000000000000000000000000000000000000000000000000000008152600401610b35906120c1565b60405180910390fd5b825f808873ffffffffffffffffffffffffffffffffffffffff1673ffffffffffffffffffffffffffffffffffffffff1681526020019081526020015f205f8681526020019081526020015f205f828254610b9891906121a1565b92505081905550825f808773ffffffffffffffffffffffffffffffffffffffff1673ffffffffffffffffffffffffffffffffffffffff1681526020019081526020015f205f8681526020019081526020015f205f828254610bf991906121d4565b925050819055508473ffffffffffffffffffffffffffffffffffffffff168673ffffffffffffffffffffffffffffffffffffffff163373ffffffffffffffffffffffffffffffffffffffff167fc3d58168c5ae7397731d063d5bbf3d657854427343f4c083240f7aacaa2d0f628787604051610c76929190612521565b60405180910390a45f8573ffffffffffffffffffffffffffffffffffffffff163b1115610da75763f23a6e6160e01b7bffffffffffffffffffffffffffffffffffffffffffffffffffffffff19168573ffffffffffffffffffffffffffffffffffffffff1663f23a6e613389888888886040518763ffffffff1660e01b8152600401610d0796959493929190612548565b6020604051808303815f875af1158015610d23573d5f803e3d5ffd5b505050506040513d601f19601f82011682018060405250810190610d4791906123fb565b7bffffffffffffffffffffffffffffffffffffffffffffffffffffffff191614610da6576040517f08c379a0000000000000000000000000000000000000000000000000000000008152600401610d9d90612470565b60405180910390fd5b5b505050505050565b5f73ffffffffffffffffffffffffffffffffffffffff168473ffffffffffffffffffffffffffffffffffffffff1603610e1d576040517f08c379a0000000000000000000000000000000000000000000000000000000008152600401610e14906120c1565b60405180910390fd5b815f808673ffffffffffffffffffffffffffffffffffffffff1673ffffffffffffffffffffffffffffffffffffffff1681526020019081526020015f205f8581526020019081526020015f205f828254610e7791906121d4565b925050819055508373ffffffffffffffffffffffffffffffffffffffff165f73ffffffffffffffffffffffffffffffffffffffff163373ffffffffffffffffffffffffffffffffffffffff167fc3d58168c5ae7397731d063d5bbf3d657854427343f4c083240f7aacaa2d0f628686604051610ef4929190612521565b60405180910390a45f8473ffffffffffffffffffffffffffffffffffffffff163b11156110235763f23a6e6160e01b7bffffffffffffffffffffffffffffffffffffffffffffffffffffffff19168473ffffffffffffffffffffffffffffffffffffffff1663f23a6e61335f8787876040518663ffffffff1660e01b8152600401610f839594939291906125e4565b6020604051808303815f875af1158015610f9f573d5f803e3d5ffd5b505050506040513d601f19601f82011682018060405250810190610fc391906123fb565b7bffffffffffffffffffffffffffffffffffffffffffffffffffffffff191614611022576040517f08c379a000000000000000000000000000000000000000000000000000000000815260040161101990612470565b60405180910390fd5b5b50505050565b5f73ffffffffffffffffffffffffffffffffffffffff168573ffffffffffffffffffffffffffffffffffffffff1603611097576040517f08c379a000000000000000000000000000000000000000000000000000000000815260040161108e90612686565b60405180910390fd5b8181905084849050146110df576040517f08c379a00000000000000000000000000000000000000000000000000000000081526004016110d690612129565b60405180910390fd5b5f5b84849050811015611192578282828181106110ff576110fe612147565b5b905060200201355f808873ffffffffffffffffffffffffffffffffffffffff1673ffffffffffffffffffffffffffffffffffffffff1681526020019081526020015f205f87878581811061115657611155612147565b5b9050602002013581526020019081526020015f205f82825461117891906121a1565b92505081905550808061118a90612207565b9150506110e1565b505f73ffffffffffffffffffffffffffffffffffffffff168573ffffffffffffffffffffffffffffffffffffffff163373ffffffffffffffffffffffffffffffffffffffff167f4a39dc06d4c0dbc64b70af90fd698a233a518aa5d07e595d983b8c0526c8f7fb8787878760405161120d94939291906122b6565b60405180910390a45050505050565b5f73ffffffffffffffffffffffffffffffffffffffff168373ffffffffffffffffffffffffffffffffffffffff160361128a576040517f08c379a000000000000000000000000000000000000000000000000000000000815260040161128190612686565b60405180910390fd5b805f808573ffffffffffffffffffffffffffffffffffffffff1673ffffffffffffffffffffffffffffffffffffffff1681526020019081526020015f205f8481526020019081526020015f205f8282546112e491906121a1565b925050819055505f73ffffffffffffffffffffffffffffffffffffffff168373ffffffffffffffffffffffffffffffffffffffff163373ffffffffffffffffffffffffffffffffffffffff167fc3d58168c5ae7397731d063d5bbf3d657854427343f4c083240f7aacaa2d0f628585604051611361929190612521565b60405180910390a4505050565b5f73ffffffffffffffffffffffffffffffffffffffff168773ffffffffffffffffffffffffffffffffffffffff16036113dc576040517f08c379a00000000000000000000000000000000000000000000000000000000081526004016113d3906120c1565b60405180910390fd5b838390508686905014611424576040517f08c379a000000000000000000000000000000000000000000000000000000000815260040161141b90612129565b60405180910390fd5b5f5b868690508110156114d75784848281811061144457611443612147565b5b905060200201355f808a73ffffffffffffffffffffffffffffffffffffffff1673ffffffffffffffffffffffffffffffffffffffff1681526020019081526020015f205f89898581811061149b5761149a612147565b5b9050602002013581526020019081526020015f205f8282546114bd91906121d4565b9250508190555080806114cf90612207565b915050611426565b508673ffffffffffffffffffffffffffffffffffffffff165f73ffffffffffffffffffffffffffffffffffffffff163373ffffffffffffffffffffffffffffffffffffffff167f4a39dc06d4c0dbc64b70af90fd698a233a518aa5d07e595d983b8c0526c8f7fb8989898960405161155294939291906122b6565b60405180910390a45f8773ffffffffffffffffffffffffffffffffffffffff163b11156116875763bc197c8160e01b7bffffffffffffffffffffffffffffffffffffffffffffffffffffffff19168773ffffffffffffffffffffffffffffffffffffffff1663bc197c81335f8a8a8a8a8a8a6040518963ffffffff1660e01b81526004016115e798979695949392919061233a565b6020604051808303815f875af1158015611603573d5f803e3d5ffd5b505050506040513d601f19601f8201168201806040525081019061162791906123fb565b7bffffffffffffffffffffffffffffffffffffffffffffffffffffffff191614611686576040517f08c379a000000000000000000000000000000000000000000000000000000000815260040161167d90612470565b60405180910390fd5b5b50505050505050565b5f604051905090565b5f80fd5b5f80fd5b5f73ffffffffffffffffffffffffffffffffffffffff82169050919050565b5f6116ca826116a1565b9050919050565b6116da816116c0565b81146116e4575f80fd5b50565b5f813590506116f5816116d1565b92915050565b5f819050919050565b61170d816116fb565b8114611717575f80fd5b50565b5f8135905061172881611704565b92915050565b5f806040838503121561174457611743611699565b5b5f611751858286016116e7565b92505060206117628582860161171a565b9150509250929050565b611775816116fb565b82525050565b5f60208201905061178e5f83018461176c565b92915050565b5f80fd5b5f80fd5b5f601f19601f8301169050919050565b7f4e487b71000000000000000000000000000000000000000000000000000000005f52604160045260245ffd5b6117e28261179c565b810181811067ffffffffffffffff82111715611801576118006117ac565b5b80604052505050565b5f611813611690565b905061181f82826117d9565b919050565b5f67ffffffffffffffff82111561183e5761183d6117ac565b5b6118478261179c565b9050602081019050919050565b828183375f83830152505050565b5f61187461186f84611824565b61180a565b9050828152602081018484840111156118905761188f611798565b5b61189b848285611854565b509392505050565b5f82601f8301126118b7576118b6611794565b5b81356118c7848260208601611862565b91505092915050565b5f805f606084860312156118e7576118e6611699565b5b5f6118f48682870161171a565b93505060206119058682870161171a565b925050604084013567ffffffffffffffff8111156119265761192561169d565b5b611932868287016118a3565b9150509250925092565b5f6020828403121561195157611950611699565b5b5f61195e8482850161171a565b91505092915050565b5f81519050919050565b5f82825260208201905092915050565b5f5b8381101561199e578082015181840152602081019050611983565b5f8484015250505050565b5f6119b382611967565b6119bd8185611971565b93506119cd818560208601611981565b6119d68161179c565b840191505092915050565b5f6020820190508181035f8301526119f981846119a9565b905092915050565b5f80fd5b5f80fd5b5f8083601f840112611a1e57611a1d611794565b5b8235905067ffffffffffffffff811115611a3b57611a3a611a01565b5b602083019150836020820283011115611a5757611a56611a05565b5b9250929050565b5f805f8060408587031215611a7657611a75611699565b5b5f85013567ffffffffffffffff811115611a9357611a9261169d565b5b611a9f87828801611a09565b9450945050602085013567ffffffffffffffff811115611ac257611ac161169d565b5b611ace87828801611a09565b925092505092959194509250565b5f8083601f840112611af157611af0611794565b5b8235905067ffffffffffffffff811115611b0e57611b0d611a01565b5b602083019150836001820283011115611b2a57611b29611a05565b5b9250929050565b5f805f805f805f8060a0898b031215611b4d57611b4c611699565b5b5f611b5a8b828c016116e7565b9850506020611b6b8b828c016116e7565b975050604089013567ffffffffffffffff811115611b8c57611b8b61169d565b5b611b988b828c01611a09565b9650965050606089013567ffffffffffffffff811115611bbb57611bba61169d565b5b611bc78b828c01611a09565b9450945050608089013567ffffffffffffffff811115611bea57611be961169d565b5b611bf68b828c01611adc565b92509250509295985092959890939650565b5f8083601f840112611c1d57611c1c611794565b5b8235905067ffffffffffffffff811115611c3a57611c39611a01565b5b602083019150836020820283011115611c5657611c55611a05565b5b9250929050565b5f805f8060408587031215611c7557611c74611699565b5b5f85013567ffffffffffffffff811115611c9257611c9161169d565b5b611c9e87828801611c08565b9450945050602085013567ffffffffffffffff811115611cc157611cc061169d565b5b611ccd87828801611a09565b925092505092959194509250565b5f81519050919050565b5f82825260208201905092915050565b5f819050602082019050919050565b611d0d816116fb565b82525050565b5f611d1e8383611d04565b60208301905092915050565b5f602082019050919050565b5f611d4082611cdb565b611d4a8185611ce5565b9350611d5583611cf5565b805f5b83811015611d85578151611d6c8882611d13565b9750611d7783611d2a565b925050600181019050611d58565b5085935050505092915050565b5f6020820190508181035f830152611daa8184611d36565b905092915050565b5f8115159050919050565b611dc681611db2565b8114611dd0575f80fd5b50565b5f81359050611de181611dbd565b92915050565b5f8060408385031215611dfd57611dfc611699565b5b5f611e0a858286016116e7565b9250506020611e1b85828601611dd3565b9150509250929050565b5f8060408385031215611e3b57611e3a611699565b5b5f611e488582860161171a565b9250506020611e598582860161171a565b9150509250929050565b5f805f805f8060608789031215611e7d57611e7c611699565b5b5f87013567ffffffffffffffff811115611e9a57611e9961169d565b5b611ea689828a01611a09565b9650965050602087013567ffffffffffffffff811115611ec957611ec861169d565b5b611ed589828a01611a09565b9450945050604087013567ffffffffffffffff811115611ef857611ef761169d565b5b611f0489828a01611adc565b92509250509295509295509295565b5f8060408385031215611f2957611f28611699565b5b5f611f36858286016116e7565b9250506020611f47858286016116e7565b9150509250929050565b611f5a81611db2565b82525050565b5f602082019050611f735f830184611f51565b92915050565b5f805f805f8060a08789031215611f9357611f92611699565b5b5f611fa089828a016116e7565b9650506020611fb189828a016116e7565b9550506040611fc289828a0161171a565b9450506060611fd389828a0161171a565b935050608087013567ffffffffffffffff811115611ff457611ff361169d565b5b61200089828a01611adc565b92509250509295509295509295565b7f6e6f7420617070726f76656400000000000000000000000000000000000000005f82015250565b5f612043600c83611971565b915061204e8261200f565b602082019050919050565b5f6020820190508181035f83015261207081612037565b9050919050565b7f746f203d203020616464726573730000000000000000000000000000000000005f82015250565b5f6120ab600e83611971565b91506120b682612077565b602082019050919050565b5f6020820190508181035f8301526120d88161209f565b9050919050565b7f696473206c656e67746820213d2076616c756573206c656e67746800000000005f82015250565b5f612113601b83611971565b915061211e826120df565b602082019050919050565b5f6020820190508181035f83015261214081612107565b9050919050565b7f4e487b71000000000000000000000000000000000000000000000000000000005f52603260045260245ffd5b7f4e487b71000000000000000000000000000000000000000000000000000000005f52601160045260245ffd5b5f6121ab826116fb565b91506121b6836116fb565b92508282039050818111156121ce576121cd612174565b5b92915050565b5f6121de826116fb565b91506121e9836116fb565b925082820190508082111561220157612200612174565b5b92915050565b5f612211826116fb565b91507fffffffffffffffffffffffffffffffffffffffffffffffffffffffffffffffff820361224357612242612174565b5b600182019050919050565b5f80fd5b82818337505050565b5f6122668385611ce5565b93507f07ffffffffffffffffffffffffffffffffffffffffffffffffffffffffffffff8311156122995761229861224e565b5b6020830292506122aa838584612252565b82840190509392505050565b5f6040820190508181035f8301526122cf81868861225b565b905081810360208301526122e481848661225b565b905095945050505050565b6122f8816116c0565b82525050565b5f82825260208201905092915050565b5f61231983856122fe565b9350612326838584611854565b61232f8361179c565b840190509392505050565b5f60a08201905061234d5f83018b6122ef565b61235a602083018a6122ef565b818103604083015261236d81888a61225b565b9050818103606083015261238281868861225b565b9050818103608083015261239781848661230e565b90509998505050505050505050565b5f7fffffffff0000000000000000000000000000000000000000000000000000000082169050919050565b6123da816123a6565b81146123e4575f80fd5b50565b5f815190506123f5816123d1565b92915050565b5f602082840312156124105761240f611699565b5b5f61241d848285016123e7565b91505092915050565b7f756e73616665207472616e7366657200000000000000000000000000000000005f82015250565b5f61245a600f83611971565b915061246582612426565b602082019050919050565b5f6020820190508181035f8301526124878161244e565b9050919050565b7f6f776e657273206c656e67746820213d20696473206c656e67746800000000005f82015250565b5f6124c2601b83611971565b91506124cd8261248e565b602082019050919050565b5f6020820190508181035f8301526124ef816124b6565b9050919050565b5f6020828403121561250b5761250a611699565b5b5f612518848285016116e7565b91505092915050565b5f6040820190506125345f83018561176c565b612541602083018461176c565b9392505050565b5f60a08201905061255b5f8301896122ef565b61256860208301886122ef565b612575604083018761176c565b612582606083018661176c565b818103608083015261259581848661230e565b9050979650505050505050565b5f81519050919050565b5f6125b6826125a2565b6125c081856122fe565b93506125d0818560208601611981565b6125d98161179c565b840191505092915050565b5f60a0820190506125f75f8301886122ef565b61260460208301876122ef565b612611604083018661176c565b61261e606083018561176c565b818103608083015261263081846125ac565b90509695505050505050565b7f66726f6d203d20302061646472657373000000000000000000000000000000005f82015250565b5f612670601083611971565b915061267b8261263c565b602082019050919050565b5f6020820190508181035f83015261269d81612664565b905091905056fea26469706673582212208846680005ca3edc05ed9ec9a527d4c226200bb5c9b5570a00d7009ae28b92f664736f6c63430008150033",
  "immutableReferences": {},
  "source": "// SPDX-License-Identifier: MIT\r\npragma solidity ^0.8.19;\r\n\r\ninterface IERC1155 {\r\n    function safeTransferFrom(\r\n        address from,\r\n        address to,\r\n        uint256 id,\r\n        uint256 value,\r\n        bytes calldata data\r\n    ) external;\r\n\r\n    function safeBatchTransferFrom(\r\n        address from,\r\n        address to,\r\n        uint256[] calldata ids,\r\n        uint256[] calldata values,\r\n        bytes calldata data\r\n    ) external;\r\n\r\n    function balanceOf(address owner, uint256 id) external view returns (uint256);\r\n\r\n    function balanceOfBatch(\r\n        address[] calldata owners,\r\n        uint256[] calldata ids\r\n    ) external view returns (uint256[] memory);\r\n\r\n    function setApprovalForAll(address operator, bool approved) external;\r\n\r\n    function isApprovedForAll(\r\n        address owner,\r\n        address operator\r\n    ) external view returns (bool);\r\n}\r\n\r\ninterface IERC1155TokenReceiver {\r\n    function onERC1155Received(\r\n        address operator,\r\n        address from,\r\n        uint256 id,\r\n        uint256 value,\r\n        bytes calldata data\r\n    ) external returns (bytes4);\r\n\r\n    function onERC1155BatchReceived(\r\n        address operator,\r\n        address from,\r\n        uint256[] calldata ids,\r\n        uint256[] calldata values,\r\n        bytes calldata data\r\n    ) external returns (bytes4);\r\n}\r\n\r\ncontract ERC1155 is IERC1155 {\r\n    event TransferSingle(\r\n        address indexed operator,\r\n        address indexed from,\r\n        address indexed to,\r\n        uint256 id,\r\n        uint256 value\r\n    );\r\n    event TransferBatch(\r\n        address indexed operator,\r\n        address indexed from,\r\n        address indexed to,\r\n        uint256[] ids,\r\n        uint256[] values\r\n    );\r\n    event ApprovalForAll(\r\n        address indexed owner,\r\n        address indexed operator,\r\n        bool approved\r\n    );\r\n    event URI(string value, uint256 indexed id);\r\n\r\n    // owner => id => balance\r\n    mapping(address => mapping(uint256 => uint256)) public balanceOf;\r\n    // owner => operator => approved\r\n    mapping(address => mapping(address => bool)) public isApprovedForAll;\r\n\r\n    function balanceOfBatch(\r\n        address[] calldata owners,\r\n        uint256[] calldata ids\r\n    ) external view returns (uint256[] memory balances) {\r\n        require(owners.length == ids.length, \"owners length != ids length\");\r\n\r\n        balances = new uint[](owners.length);\r\n\r\n        unchecked {\r\n            for (uint256 i = 0; i < owners.length; i++) {\r\n                balances[i] = balanceOf[owners[i]][ids[i]];\r\n            }\r\n        }\r\n    }\r\n\r\n    function setApprovalForAll(address operator, bool approved) external {\r\n        isApprovedForAll[msg.sender][operator] = approved;\r\n        emit ApprovalForAll(msg.sender, operator, approved);\r\n    }\r\n\r\n    function safeTransferFrom(\r\n        address from,\r\n        address to,\r\n        uint256 id,\r\n        uint256 value,\r\n        bytes calldata data\r\n    ) external {\r\n        require(\r\n            msg.sender == from || isApprovedForAll[from][msg.sender],\r\n            \"not approved\"\r\n        );\r\n        require(to != address(0), \"to = 0 address\");\r\n\r\n        balanceOf[from][id] -= value;\r\n        balanceOf[to][id] += value;\r\n\r\n        emit TransferSingle(msg.sender, from, to, id, value);\r\n\r\n        if (to.code.length > 0) {\r\n            require(\r\n                IERC1155TokenReceiver(to).onERC1155Received(\r\n                    msg.sender,\r\n                    from,\r\n                    id,\r\n                    value,\r\n                    data\r\n                ) == IERC1155TokenReceiver.onERC1155Received.selector,\r\n                \"unsafe transfer\"\r\n            );\r\n        }\r\n    }\r\n\r\n    function safeBatchTransferFrom(\r\n        address from,\r\n        address to,\r\n        uint256[] calldata ids,\r\n        uint256[] calldata values,\r\n        bytes calldata data\r\n    ) external {\r\n        require(\r\n            msg.sender == from || isApprovedForAll[from][msg.sender],\r\n            \"not approved\"\r\n        );\r\n        require(to != address(0), \"to = 0 address\");\r\n        require(ids.length == values.length, \"ids length != values length\");\r\n\r\n        for (uint256 i = 0; i < ids.length; i++) {\r\n            balanceOf[from][ids[i]] -= values[i];\r\n            balanceOf[to][ids[i]] += values[i];\r\n        }\r\n\r\n        emit TransferBatch(msg.sender, from, to, ids, values);\r\n\r\n        if (to.code.length > 0) {\r\n            require(\r\n                IERC1155TokenReceiver(to).onERC1155BatchReceived(\r\n                    msg.sender,\r\n                    from,\r\n                    ids,\r\n                    values,\r\n                    data\r\n                ) == IERC1155TokenReceiver.onERC1155BatchReceived.selector,\r\n                \"unsafe transfer\"\r\n            );\r\n        }\r\n    }\r\n\r\n\r\n    // ERC1155 Metadata URI\r\n    function uri(uint256 id) public view virtual returns (string memory) {}\r\n\r\n    // Internal functions\r\n    function _mint(address to, uint256 id, uint256 value, bytes memory data) internal {\r\n        require(to != address(0), \"to = 0 address\");\r\n\r\n        balanceOf[to][id] += value;\r\n\r\n        emit TransferSingle(msg.sender, address(0), to, id, value);\r\n\r\n        if (to.code.length > 0) {\r\n            require(\r\n                IERC1155TokenReceiver(to).onERC1155Received(\r\n                    msg.sender,\r\n                    address(0),\r\n                    id,\r\n                    value,\r\n                    data\r\n                ) == IERC1155TokenReceiver.onERC1155Received.selector,\r\n                \"unsafe transfer\"\r\n            );\r\n        }\r\n    }\r\n\r\n    function _batchMint(\r\n        address to,\r\n        uint256[] calldata ids,\r\n        uint256[] calldata values,\r\n        bytes calldata data\r\n    ) internal {\r\n        require(to != address(0), \"to = 0 address\");\r\n        require(ids.length == values.length, \"ids length != values length\");\r\n\r\n        for (uint256 i = 0; i < ids.length; i++) {\r\n            balanceOf[to][ids[i]] += values[i];\r\n        }\r\n\r\n        emit TransferBatch(msg.sender, address(0), to, ids, values);\r\n\r\n        if (to.code.length > 0) {\r\n            require(\r\n                IERC1155TokenReceiver(to).onERC1155BatchReceived(\r\n                    msg.sender,\r\n                    address(0),\r\n                    ids,\r\n                    values,\r\n                    data\r\n                ) == IERC1155TokenReceiver.onERC1155BatchReceived.selector,\r\n                \"unsafe transfer\"\r\n            );\r\n        }\r\n    }\r\n\r\n    function _burn(address from, uint256 id, uint256 value) internal {\r\n        require(from != address(0), \"from = 0 address\");\r\n        balanceOf[from][id] -= value;\r\n        emit TransferSingle(msg.sender, from, address(0), id, value);\r\n    }\r\n\r\n    function _batchBurn(\r\n        address from,\r\n        uint256[] calldata ids,\r\n        uint256[] calldata values\r\n    ) internal {\r\n        require(from != address(0), \"from = 0 address\");\r\n        require(ids.length == values.length, \"ids length != values length\");\r\n\r\n        for (uint256 i = 0; i < ids.length; i++) {\r\n            balanceOf[from][ids[i]] -= values[i];\r\n        }\r\n\r\n        emit TransferBatch(msg.sender, from, address(0), ids, values);\r\n    }\r\n}\r\n\r\ncontract MyMultiToken is ERC1155 {\r\n    function mint(uint256 id, uint256 value, bytes memory data) external {\r\n        _mint(msg.sender, id, value, data);\r\n    }\r\n\r\n    function batchMint(\r\n        uint256[] calldata ids,\r\n        uint256[] calldata values,\r\n        bytes calldata data\r\n    ) external {\r\n        _batchMint(msg.sender, ids, values, data);\r\n    }\r\n\r\n    function burn(uint256 id, uint256 value) external {\r\n        _burn(msg.sender, id, value);\r\n    }\r\n\r\n    function batchBurn(uint256[] calldata ids, uint256[] calldata values) external {\r\n        _batchBurn(msg.sender, ids, values);\r\n    }\r\n}\r\n",
  "sourcePath": "C:\\Users\\Hugo\\Desktop\\BC24\\contracts\\1155.sol",
  "compiler": {
    "name": "solc",
    "version": "0.8.21+commit.d9974bed.Emscripten.clang"
  },
  "schemaVersion": "3.4.16",
  "updatedAt": "2023-11-28T17:49:59.822Z",
  "devdoc": {
    "kind": "dev",
    "methods": {},
    "version": 1
  },
  "userdoc": {
    "kind": "user",
    "methods": {},
    "version": 1
  }
}