{
  "contractName": "SimpleStorage",
  "abi": [
    {
      "inputs": [
        {
          "internalType": "uint256",
          "name": "_data",
          "type": "uint256"
        }
      ],
      "name": "updateData",
      "outputs": [],
      "stateMutability": "nonpayable",
      "type": "function"
    },
    {
      "inputs": [],
      "name": "readData",
      "outputs": [
        {
          "internalType": "uint256",
          "name": "",
          "type": "uint256"
        }
      ],
      "stateMutability": "view",
      "type": "function"
    }
  ],
  "bytecode": "0x608060405234801561000f575f80fd5b506101438061001d5f395ff3fe608060405234801561000f575f80fd5b5060043610610034575f3560e01c806309e9600814610038578063bef55ef314610054575b5f80fd5b610052600480360381019061004d91906100ba565b610072565b005b61005c61007b565b60405161006991906100f4565b60405180910390f35b805f8190555050565b5f8054905090565b5f80fd5b5f819050919050565b61009981610087565b81146100a3575f80fd5b50565b5f813590506100b481610090565b92915050565b5f602082840312156100cf576100ce610083565b5b5f6100dc848285016100a6565b91505092915050565b6100ee81610087565b82525050565b5f6020820190506101075f8301846100e5565b9291505056fea2646970667358221220b52b7d50f62ff7a9ab807fa7480432d96ef4fe192260a9e659065f2c8f5a931564736f6c63430008150033",
  "immutableReferences": {},
  "source": "// SPDX-License-Identifier: MIT\r\npragma solidity ^0.8.19;\r\n\r\n// On déclare le contrat SimpleStorage qui permet de stocker et lire une donnée de type uint\r\ncontract SimpleStorage{\r\n    // On déclare une variable d'état data qui contient la donnée stockée\r\n    uint data;\r\n\r\n    // On définit une fonction updateData qui prend en paramètre une valeur de type uint et qui met à jour la variable data avec cette valeur\r\n    function updateData(uint _data)external{\r\n        data = _data;\r\n    }\r\n\r\n    // On définit une fonction readData qui renvoie la valeur de la variable data\r\n    function readData() external view returns(uint){\r\n        return data;\r\n    }\r\n}\r\n",
  "sourcePath": "C:\\Users\\Hugo\\Desktop\\BC24\\contracts\\simple.sol",
  "compiler": {
    "name": "solc",
    "version": "0.8.21+commit.d9974bed.Emscripten.clang"
  },
  "schemaVersion": "3.4.16",
  "updatedAt": "2023-11-28T17:49:59.828Z",
  "devdoc": {
    "kind": "dev",
    "methods": {},
    "version": 1
  },
  "userdoc": {
    "kind": "user",
    "methods": {},
    "version": 1
  }
}